:0600000000F070EF00F0BB
:10001800FFFF2380D8CF03F0E8CF04F0E0CF05F04E
:10002800FACF06F0FBCF07F0E9CF08F0EACF09F0E6
:10003800E1CF0AF0E2CF0BF0D9CF0CF0DACF0DF018
:10004800F3CF0EF0F4CF0FF0F6CF10F0F7CF11F09A
:10005800F8CF12F0F5CF13F0F2A417D0F29482A0E3
:1000680005D022C0D6FFD76A82900FD0FFFF22505A
:10007800016E026A011E021E014A022AFF0E0124B5
:10008800D66E000E0220D76E8280FFFF13C0F5FFE8
:1000980012C0F8FF11C0F7FF10C0F6FF0FC0F4FF41
:1000A8000EC0F3FF0DC0DAFF0CC0D9FF0BC0E2FF92
:1000B8000AC0E1FF09C0EAFF08C0E9FF07C0FBFF6B
:1000C80006C0FAFF05C0E0FF04C0E8FF03C0D8FF80
:1000D80023901000FFFFFFFF05EF01F0FFFF000E68
:1000E8001D6E1BAE06D01A6C1B1ED8B01B2A010E43
:1000F8001D6EFFFF19AE06D0186C191ED8B0192A4C
:10010800010E1D1AFFFF000E1F6E000E1E6E1A5004
:100118001B10D8B420D0010E1C6E05D0FFFFD8905C
:100128001A361B361C2AFFFF1BAEF8D7FFFFD890E4
:100138001E361F361A50185C1B501958D8A005D007
:100148001A50185E1B50195A1E80FFFFD8901B3298
:100158001A321C2EEBD7FFFF1D50D8B404D01E6CEA
:100168001F1ED8B01F2AFFFF1EC018F01FC019F0AD
:100178001200FFFFFFFFF28EF28CF28AC70ED56ED7
:10018800810EC26E8E0EC16E000E926E000E946EBF
:10019800000E806E010E826E100E226ED58E000E3D
:1001A800D76ED668FFFFEBEC00F014C018F015C04E
:1001B80019F0000E1B6E400E1A6E72EC00F018C09B
:1001C80020F019C021F02050100F226EEBD7FFFF4E
:1001D800000E176E000E166EC284FFFFC2B4FDD764
:1001E800C4CF16F0176A1650176E166A1650C31049
:1001F800166E1750176E16C014F017C015F01200BF
:0E020800FFFF239023920001BEEF00F0FFFFE6
:020000040020DA
:08000000FFFFFFFFFFFFFFFF00
:020000040030CA
:0E000000FF210D0EFF0181FF0FC00FE00F402A
:00000001FF
